:020000040800F2
:1000000000000120C90600081907000819070008A8
:100010001907000819070008190700080000000068
:1000200000000000000000000000000019070008A8
:100030001907000800000000190700081907000848
:100040000000000019070008190700081907000838
:100050001907000819070008190700081907000800
:100060001907000819070008190700080000000018
:100070000000000000000000000000000000000080
:100080000000000000000000190700080000000048
:100090000000000000000000000000001907000838
:1000A00019070008190700081907000819070008B0
:1000B00019070008190700080000000019070008C8
:1000C0001907000819070008190700081907000890
:1000D00019070008000000000000000000000000F8
:1000E0001907000819070008190700080000000098
:1000F0000000000000000000000000000000000000
:10010000000000001907000800000000190700089F
:1001100000000000000000000000000000000000DF
:1001200000000000000000000000000000000000CF
:1001300000000000000000000000000000000000BF
:100140000000000000000000000000001907000887
:10015000000000000000000000000000000000009F
:10016000190700081907000800000000000000003F
:10017000000000000000000000000000000000007F
:100180000000000019070008000000000000000047
:040190001907000843
:1001940010B5054C237833B9044B13B10448AFF3BD
:1001A40000800123237010BD4404002000000000DF
:1001B4008008000808B5034B1BB103490348AFF39B
:1001C400008008BD000000004804002080080008EA
:1001D40080B483B000AF7860084611461A460346DF
:1001E400FB700B46BB7013467B70204B1A6B7B78FD
:1001F400012101FA03F31D4913430B63BB78002B60
:1002040016D07B681A68FB785B00012101FA03F3BE
:100214001A437B681A607B681A68FB785B000133B9
:10022400012101FA03F3DB431A407B681A6016E0EC
:100234007B681A68FB785B00012101FA03F3DB4356
:100244001A407B681A607B681A68FB785B0001338C
:10025400012101FA03F3DB431A407B681A6000BFF3
:100264000C37BD465DF8047B704700BF0038024080
:1002740080B483B000AF78600B46FB701346BB704C
:100284007B681A68FB785B00012101FA03F31340D1
:10029400002B18D0BB78002B09D07B685A69FB78F7
:1002A400012101FA03F31A437B685A6109E07B6870
:1002B4005A69FB78012101FA03F3DB431A407B6896
:1002C4005A61002300E0012318460C37BD465DF84F
:1002D400047B704780B483B000AF78600B46FB703A
:1002E4007B681A68FB785B00012101FA03F3134071
:1002F400002B0AD17B681B69DAB2FB78012101FA71
:1003040003F3DBB21340DBB200E0002318460C37E2
:10031400BD465DF8047B704780B483B000AF78605D
:100324000B46FB707B68DA68FB785B0001330121C4
:1003340001FA03F3DB431A407B68DA607B68DA680E
:10034400FB785B00012101FA03F31A437B68DA604E
:1003540000BF0C37BD465DF8047B704780B584B0A0
:1003640000AF0023FB600BE01C4AFB6813441978C0
:10037400002301221A48FFF72BFFFB680133FB60BF
:100384000322FB689342EFDB0023BB600BE0154ABA
:10039400BB6813441978002300221148FFF718FFA3
:1003A400BB680133BB600422BB689342EFDB0023CC
:1003B4007B600AE00B4A7B6813441B7819460848A3
:1003C400FFF7AAFF7B6801337B6004227B689342BA
:1003D400F0DB00BF1037BD4680BD00BF0400002025
:1003E400000002400000002080B584B000AF00236C
:1003F400FB6063E00023BB600BE0334ABB6813443B
:100404001B78012219463148FFF732FFBB680133DC
:10041400BB600322BB689342EFDB2B4AFB681344A7
:100424001B78002219462948FFF722FF00237B602E
:100434003DE0274A7B6813441B7819462348FFF79D
:1004440049FF0346002B2FD100233B6002E03B68A9
:1004540001333B603B684CF24F329342F7DD1C4A58
:100464007B6813441B7819461848FFF733FF03468B
:10047400002B19D100BF164A7B6813441B78194618
:100484001248FFF727FF0346002BF4D011497A687E
:1004940013465B001344CA18FB6813441A780E4BC6
:1004A4001A7000F01BF806E07B6801337B600422BD
:1004B4007B689342BDDBFB680133FB600322FB686E
:1004C400934297DB93E700BF040000200000024042
:1004D40000000020080000206004002080B582B0E5
:1004E40000AF00237B6009E07B68D9B201230122BD
:1004F4001548FFF76DFE7B6801337B607B68032B37
:10050400F2DD124B1B78092B19D800233B6013E052
:100514003B68D9B201223B6802FA03F35AB20B4B8F
:100524001B785BB213405BB2DBB21A460648FFF796
:100534009FFE3B6801333B603B68032BE8DD00BF53
:100544000837BD4680BD00BF00040240600400209F
:1005540080B500AFFFF702FFFFF746FF0023184600
:1005640080BD000080B500AF164BD3F88830154A23
:1005740043F47003C2F88830134B1B68124A43F0EB
:1005840001031360104B00229A600F4B1B680E4A44
:1005940023F0847323F4803313600B4B0B4A5A60AB
:1005A400094B1B68084A23F480231360064B00227E
:1005B400DA6000F00DF8034B4FF000629A6000BF60
:1005C40080BD00BF00ED00E0003802401030002480
:1005D40080B483B000AF00237B6000233B60354BC5
:1005E4001B68344A43F480331360324B1B6803F4B2
:1005F40000333B607B6801337B603B68002B03D195
:100604007B68B3F5A04FF0D12A4B1B6803F4003389
:10061400002B02D001233B6001E000233B603B68D8
:10062400012B40D1234B1B6C224A43F080531364AB
:10063400214B1B68204A43F4404313601D4B1D4A61
:100644009B6893601B4B1B4A9B689360194B9B6888
:10065400184A43F480539360164B184A5A60154B5A
:100664001B68144A43F08073136000BF114B1B686E
:1006740003F00073002BF9D0114B40F202721A60A0
:100684000C4B9B680B4A23F003039360094B9B6854
:10069400084A43F00203936000BF064B9B6803F0D3
:1006A4000C03082BF9D100BF0C37BD465DF8047B61
:1006B400704700BF003802400070004019544107E1
:1006C400003C02400D4885460D480E490E4A002361
:1006D40002E0D458C4500433C4188C42F9D30B4AF2
:1006E4000B4C002301E013600432A242FBD3FFF75A
:1006F40039FF00F011F8FFF72BFFFEE7000001209F
:100704000000002044040020A8080008440400203D
:1007140088040020FEE7000070B50D4E0D4D761BD9
:10072400B61006D00024013455F8043B9847A6427D
:10073400F9D1094E094D761B00F0A0F8B61006D089
:100744000024013455F8043B9847A642F9D170BD02
:100754009C0800089C080008A40800089C080008DD
:10076400024B13B1024800F005B8704700000000C6
:1007740085070008002301461A46184600F01EB8F3
:1007840038B50A4C0A4D641BA4100AD004F1804306
:10079400013B05EB8305013C55F804399847002CCF
:1007A400F9D1BDE8384000F06FB800BFA8080008D0
:1007B400A4080008704700BF704700BF2DE9F84344
:1007C4002B4D0646286898460F469146FFF7F2FFE0
:1007D400284B1C68D4F84831002B3DD05A681F2A96
:1007E4000DDC02F1010C16BB0232C3F804C0286808
:1007F40043F82270FFF7E0FF0020BDE8F8831E4BAA
:100804007BB34FF4C870AFF30080034648B3D4F809
:1008140048210021C0E900214FF0010CC4F848012F
:100824000A46C0F88811C0F88C11002EDCD003EB06
:1008340082010124C1F88890D3F8880194402043B0
:10084400022EC3F88801C1F80881CDD1D3F88C11E8
:100854000C43C3F88C41C7E704F5A673C4F84831C8
:10086400BCE72868FFF7A8FF4FF0FF30C5E700BFDB
:10087400400400209808000800000000F8B500BFFC
:10088400F8BC08BC9E467047F8B500BFF8BC08BC6D
:040894009E467047C5
:040898001800002024
:08089C0065070008B90100081E
:0408A40095010008B2
:1008A8000304050600010200010203040506070807
:1008B800092A0023000000000000000004030020B3
:1008C8006C030020D403002000000000000000009A
:1008D8000000000000000000000000000000000010
:1008E8000000000000000000000000000000000000
:1008F80000000000000000000000000000000000F0
:1009080000000000000000000000000000000000DF
:1009180000000000000000000000000000000000CF
:1009280000000000000000000000000000000000BF
:1009380000000000000000000000000000000000AF
:10094800000000000000000000000000000000009F
:10095800000000000000000000000000000000008F
:1009680001000000000000000E33CDAB34126DE62C
:10097800ECDE05000B000000000000000000000095
:10098800000000000000000000000000000000005F
:10099800000000000000000000000000000000004F
:1009A800000000000000000000000000000000003F
:1009B800000000000000000000000000000000002F
:040CE8006404002080
:04000005080006C920
:00000001FF
